:1000000008308A00DA2800000A108A100A118207D4
:1000100028340F34013406340A108A100A1182077A
:100020000C345234453446343E342034253466345E
:100030000A34543445344D343E3425346634503417
:10004000493444343E34253466340034643084000A
:1000500083130008031939280630F800F701F70B5D
:100060002F28F80B2E287B30F700F70B3528800B54
:100070002C2800346B183E2808123F2808168316D7
:1000800008128312EB184628881247288816831610
:10009000881283126B194E2808134F2808178316ED
:1000A00008138312EB1956288813572888178316CC
:1000B000881389108312891483168910831289107A
:1000C00000348316091183120911E808031D6A28F8
:1000D00009116B28091583160911A630F700F70BD3
:1000E0006F280000891083128910690EEA000F3012
:1000F000EA056A08EB003A2069080F39EA00EB00CC
:100100003A200034831608128312081283168812CC
:100110008312881283160813831208138316881318
:10012000831288138316091183120911831689100B
:10013000831289100F30E40026200130D3005308C9
:10014000033C031CAB280330EB003A200530E400ED
:100150002620D30A9F280230EB003A20D30153080F
:10016000033C031CBC2853080420D400E8015408B5
:10017000E9006120D30AAF288A150A124D296308C5
:100180000C3A0319CD28063A0319D528073A031962
:10019000D528053A0319EB28F028E8010130E900D9
:1001A00061200230E4002620F6280130E40002300D
:1001B000E500650BDC28DF284030E600E028E6019A
:1001C00001306402E60766088038E700E801670846
:1001D000E9006120F628E8011030E9006120F628E6
:1001E0000130E8006308E9006120F62800348E3011
:1001F000F7005A08F8005908F900FA01F808031D39
:100200000B297908F800F9010830F702F808031DF6
:100210000B29F70113290310F81B1229F90DF80D0A
:10022000F7030B29F8130034630803198429EB0042
:10023000670803198429EB07031825297F30EB028F
:10024000031C84290319842929298130EB07031809
:1002500084296B08F700F801F901FA016408EF003E
:10026000EF176508EE006608ED001830EB00EC01B2
:100270006D1C52296A08FA07031C4429F90A031D58
:100280004429F80A0319EC176908F907031C4B29DC
:10029000F80A0319EC176808E500E5176508F80780
:1002A0000318EC17EC0DF80CF90CFA0CEF0CEE0C33
:1002B000ED0C0310EB0B37290130F70703188429E5
:1002C000F81B6929EF0DFA0DF90DF80DF703031965
:1002D0008429EF1F7A29FA0A031D7A29F90A031DD6
:1002E0007A29F80A031D7A29F80CF90CFA0CF70A96
:1002F000031984296408EC006808EC06EC1F8229C5
:10030000F8178829F8138829F701F801F901FA018B
:1003100000348E30F7005308F7025408F9005508EE
:10032000F800F917F7080319A0290310F908031DAD
:100330009C29F8080319A029F90CF80CF70B95294A
:10034000D41FA729F809F909F80A0319F90A003492
:100350000830F8001F08C73978049F005330F700B1
:10036000F70BB0291F151F19B32983161E08831216
:10037000A0001E08A1002108DA002008D900F720FB
:100380007A08E6007908E5007808E4007708E300D9
:100390003D30EA000A30E9001730E8007E30E7001F
:1003A00014217A08D6007908D5007808D400770897
:1003B000D30089217908A1007808A0002108F9005C
:1003C0002008F800F90CF80CF90CF80CF90C780876
:1003D0009500F90C790C3039F7001708CF397704FC
:1003E00097005330F700F70BF3298A150A12662994
:1003F00059080319BD2AE5005D080319BD2AE50265
:10040000031C072A7F30E5070318BD2A0D2A813017
:10041000E502031CBD2A0319BD2A6508F700F8018F
:10042000F901FA01E4015A08E300E3175B08E2006E
:100430005C08E1001930E5006008E1020318302A89
:100440000130E2020318302AE3020318302AE402E2
:100450000318302AE40AE30AE20A6008E107622A84
:100460005F08E20203184B2A0130E30203184B2A0B
:10047000E40203184B2AE40AE30A5F08E207600873
:10048000E107031C622AE20A031D622AE30A031D34
:10049000622AE40A622A5E088038E3020318612AAD
:1004A0000130E4020318612AE40A5E088038E30799
:1004B0005F08E207031C3F2AE30A031D3F2AE40A00
:1004C0003F2A7A14E50B652A702A0310E10DE20D2C
:1004D000E30DE40D0310FA0DF90DF80DE60D1C2ADD
:1004E000661C782A0310F80CF90CFA0CE60C7B2A2F
:1004F000F7030319BD2AE61BA42A0310E10DE20D40
:10050000E30DE40D6008E1020318902A0130E202D5
:100510000318902AE3020318902AE402031CB32A6A
:100520005F08E20203189B2A0130E30203189B2AAA
:10053000E402031CB32A5E088038E3020318A42AED
:100540000130E402031CB32AFA0A031DB32AF90A94
:10055000031DB32AF80A031DB32AF70A0319BD2A9B
:10056000F80CF90CFA0C5A08E5005E08E506E51FE0
:10057000BB2AF817C12AF813C12AF701F801F901BB
:10058000FA0100340030F8001F08C73978049F00D2
:100590005330F700F70BCA2A1F151F19CD2A1E0862
:1005A000FA0083161E088312D7001E08D800DA004E
:1005B0005708D900F7207A08DC007908DB007808B2
:1005C000DA007708D9000A30E000D730DF002330A6
:1005D000DE008230DD00F8217A08D6007908D500E7
:1005E0007808D4007708D3005308F7005408F800BF
:1005F0005508F9005608FA008A150A1269291830B8
:10060000F8001F08C73978049F005330F700F70B34
:10061000072B1F151F190A2B1E08FA0083161E0828
:100620008312D7001E08D800DA005708D900F72037
:100630007A08DC007908DB007808DA007708D9004E
:10064000B930E0005330DF000230DE008030DD00E2
:10065000F8217A08D6007908D5007808D400770800
:10066000D3005308F7005408F8005508F90056085D
:10067000FA008A150A12742980308318DC06E10119
:10068000E2015808E0005C08E006570803192C2C2A
:10069000DF00F7005B080319352CDF020319D12BAB
:1006A000031C8F2B5C08E500E5175D08E4005E087D
:1006B000E300E2010310E50CE40CE30CE20CDF0BB9
:1006C000592BE01F662B6114492C61105F106116D5
:1006D0005A30840083135E2C6112E01B792B5F1C5F
:1006E000842BE50CE40CE30CE20CF70A0319442C10
:1006F000842BE51B872B0310E20DE30DE40DE50DC4
:10070000F7030319442C792B6117F12B6113580857
:10071000E000E01F8D2BE5173D2CE5133D2C5B0819
:10072000DF00F7005708DF025808E500E517590811
:10073000E4005A08E300E2010310E50CE40CE30CCA
:10074000E20CDF0B9B2BE01FA82BE114492CE110DE
:100750005F10E1165E30840083135E2CE112E01B13
:10076000BB2B5F1CC62BE50CE40CE30CE20CF70A78
:100770000319442CC62BE51BC92B0310E20DE30D16
:10078000E40DE50DF7030319442CBB2BE117F12B06
:10079000E1135C08E000E01FCF2BE5173D2CE513CB
:1007A0003D2C5C08E500E5175D08E4005E08E30009
:1007B000E01FDE2BE5136115492C6111E2015F108A
:1007C0005A30840083135E2CE01B072C5808E0008D
:1007D0005F1CF12BE50CE40CE30CE20CF70A0319A7
:1007E000442CE21F022CE30A031D022CE40A031D21
:1007F000022CE50A031D022CE50CE40CE30CF70ABD
:100800000319442C611B862BE11BC82B262C80303E
:10081000E506E51F0F2C492C5C08E0001C2C58084D
:10082000E000E508031D1C2CE408031D1C2CE30854
:10083000031D1C2CF7013D2CE51B262C0310E20D9B
:10084000E30DE40DE50DF70B1C2C442CE01F2A2CC6
:10085000E5173D2CE5133D2C5B08F7005C08E5002F
:100860005D08E4005E08E3003D2C5708F7005808D7
:10087000E5005908E4005A08E3006508F800640838
:10088000F9006308FA007C2CF701F801F901FA017C
:100890007C2CE201E309E409E509E209E20A031D0F
:1008A000572CE30A031D572CE40A0319E50A6118C3
:1008B000652BE118A72B6119DD2B0C2C0008E30731
:1008C000031C682CE40A031D682CE50A03195F1455
:1008D00084030008E407031C702CE50A03195F1465
:1008E00084030008801F803AE50703185F14611A2B
:1008F0006C2BE11AAE2BE42B003483142508DA00AC
:100900002408D9002308D8002208D7002908DE00CF
:100910002808DD002708DC002608DB003C237A08D5
:10092000AD007908AC007808AB007708AA002D0864
:10093000E6002C08E5002B08E4002A08E30035084F
:10094000EA003408E9003308E8003208E70014211F
:100950007A08C1007908C0007808BF007708BE0097
:100960002D08E6002C08E5002B08E4002A08E30027
:100970003908EA003808E9003708E8003608E700D7
:10098000142183104508DA004408D9004308D80030
:100990004208D7007A08DE007908DD007808DC001C
:1009A0007708DB003C237A08C5007908C400780882
:1009B000C3007708C20083143108DA003008D90078
:1009C0002F08D8002E08D7002908DE002808DD00EF
:1009D0002708DC002608DB003C237708D3007808D2
:1009E000D4007908D5007A08D600E6007908E50039
:1009F0007808E4007708E3003D08EA003C08E900D5
:100A00003B08E8003A08E70014217A08C900790891
:100A1000C8007808C7007708C6002908B100280870
:100A2000B0002708AF002608AE0083104108DA00A6
:100A30004008D9003F08D8003E08D7004908DE002A
:100A40004808DD004708DC004608DB003C23770847
:100A5000D3007808D4007908D5007A08D60083102E
:100A60007A08DA007908D9007808D8007708D70022
:100A70004508DE004408DD004308DC004208DB00D6
:100A80003C237A08CD007908CC007808CB007708A1
:100A9000CA004D08D6004C08D5004B08D4004A08BF
:100AA000D300DA01D901D8017F30D7005408DB0028
:100AB0005808DB06DB1F612D03110310D41B031440
:100AC000942D5408DB005708DC005308DC0203199E
:100AD0006F2DDB1F942D0308013A8300942D5808D5
:100AE000DC005408DC0203197B2DDB1F942D030866
:100AF000013A8300942D5908DC005508DC020319E3
:100B0000872DDB1F942D0308013A8300942D5A088A
:100B1000DC005608DC020319932DDB1F942D03081B
:100B2000013A8300942D0310031CAE2DCD01CC019E
:100B3000CB01CA014B08F9004A08F800F90CF80C7F
:100B4000F90CF80CF90C78089B00F90C790C303989
:100B5000F7001D08CF3977049D00CA2D4D08D60037
:100B60004C08D5004B08D4004A08D30089217908E5
:100B7000D4007808D300D40CD30CD40CD30CD40CF0
:100B800053089B00D40C540C3039F7001D08CF39A2
:100B900077049D008A150A127F296308B63CE3009A
:100BA000FA016408E700E4170310E40CE50CE60C16
:100BB000FA0CF90CF80CF70CE30BD42DE71FEB2D16
:100BC000F709F809F909FA09F70A0319F80A0319E4
:100BD000F90A0319FA0A0034F701F801F901FA01D8
:100BE000EB01EC01ED01EE016A0869046804670499
:100BF00003192A2E2030EF000310E30DE40DE50D5C
:100C0000E60DEB0DEC0DED0DEE0D6A086E02031D09
:100C1000132E69086D02031D132E68086C02031D54
:100C2000132E67086B02031C242E6708EB0268086A
:100C3000031C680FEC026908031C690FED026A08C7
:100C4000031C6A0FEE020314F70DF80DF90DFA0DEF
:100C5000EF0BFC2D6B308400831300340408D800A4
:100C60005708DA0003194D2E5608E6005508E5002E
:100C70005408E4005308E300EA01E9012030E800E9
:100C80008230E70014217A08D6007908D500780868
:100C9000D4007708D300DA0B342E5608E600550846
:100CA000E5005408E4005308E300CD257A08D60097
:100CB0007908D5007808D4007708D300D61F6D2EA8
:100CC000D803D816D309D409D509D609D30A0319EC
:100CD000D40A0319D50A0319D60A3B30DF009A302B
:100CE000DE00CA30DD00DC010A30DA0057080319E3
:100CF000D80A5608E6005508E5005408E4005308F1
:100D0000E3005F08EA005E08E9005D08E8005C08AF
:100D1000E700EC250008D300840A0008D400840A08
:100D20000008D500840A0008D600FD308407F708C3
:100D3000031DAD2E570A5A020319AD2E5808031988
:100D4000AF2E0F395A020319A72E0318E32ED81B12
:100D5000E32E581BAF2E2030DE2E2030D805D81EB3
:100D6000BE2ED8125708031DD8037708D8002D309F
:100D70000C1EB82E99005808F700D80157085A02DF
:100D8000031DCD2E7708D8002E300C1EC52E9900DD
:100D90005808F7002030D80500303030D81EDE2E3D
:100DA000D8125708031DD8037708D8002D300C1E21
:100DB000D72E99005808F700D8013030F707770888
:100DC0000C1EE02E99005F08E6005E08E5005D0855
:100DD000E4005C08E300EA01E901E8010A30E70009
:100DE000EC257A08DF007908DE007808DD00770856
:100DF000DC00DA0B792E0034DB010408DA005B102A
:100E0000831B5B14D41F0C2FDA175A1EDA0AD3097E
:100E1000D409D30A0319D40A540EF038D600D607E1
:100E2000E23ED700323ED90054080F39D707D70722
:100E3000D907E93ED800D807D807530E0F39D8078D
:100E4000D907D80DD90DD909D90D53080F39D907AC
:100E5000D60D0730D5000A30D907D803031C2C2F34
:100E6000D807D703031C302FD707D603031C342F12
:100E7000D607D503031C382F553084008313073061
:100E80005A055A1384035A05031D4D2F5A1A840A12
:100E90005A1A4D2F2030F7006A2F84075930040268
:100EA00003195A170008F700031D5E2F5A1B5E2F07
:100EB0005A1A6E2FDA195E2F2030692FDA1F662F2B
:100EC0002D30F70084035A13DA136A2FDA155A12F9
:100ED0003030F70777080C1E6B2F9900840A5A1FD1
:080EE0004E2F8A150A12D429D5
:101000000408DB005A08DD00031921285908E6000E
:101010005808E5005708E4005608E300EA01E90132
:101020002030E8008230E7008A1114218A157A08FE
:10103000D9007908D8007808D7007708D600DD0BEA
:1010400006285908E6005808E5005708E400560845
:10105000E3008A11CD258A157A08D9007908D800CD
:101060007808D7007708D600D91F4328DB03DB16A2
:10107000D609D709D809D909D60A0319D70A0319F5
:10108000D80A0319D90A3B30E2009A30E100CA308D
:10109000E000DF010A30DD005A080319DB0A5908B5
:1010A000E6005808E5005708E4005608E300620827
:1010B000EA006108E9006008E8005F08E7008A11BB
:1010C000EC258A150008D600840A0008D700840A97
:1010D0000008D800840A0008D900FD308407F7080A
:1010E000031D85285A0A5D02031985285B08031928
:1010F00087280F395D0203197F280318BF28DB1BDF
:10110000BF285B1B87282030B9282030DB05DB1E79
:101110009728DB125A08031DDB037708DB002D300C
:10112000E3008A11BF208A155B08F700DB015A082B
:101130005D02031DA7287708DB002E30E3008A112B
:10114000BF208A155B08F7002030DB050030303007
:10115000DB1EB928DB125A08031DDB037708DB000E
:101160002D30E3008A11BF208A155B08F700DB01F0
:101170003030F7077708E3008A11BF208A1562082C
:10118000E6006108E5006008E4005F08E300EA01AA
:10119000E901E8010A30E7008A11EC258A157A088E
:1011A000E2007908E1007808E0007708DF00DD0B55
:1011B0004F280034840183131F3083058130831648
:1011C0009900A630980090308312980083161F145F
:1011D0009F141F159F1107309C008312A001A101CD
:1011E000AE01AF01B001B1018230B2002030B300D6
:1011F000B401B5017C30B6004C30B700CC30B8003B
:10120000CD30B9007730BA002330BB00D730BC00F6
:101210000A30BD00C201C301C401C501FF30D200C4
:1012200083161F109F101F119F111F1783121F136A
:101230009F1383169F1783121F1483160108C73943
:1012400008388100831290010030F80006389200BF
:101250009B30831692008312521152088316870026
:10126000831207110C309700D210520883168700A2
:10127000831287100C309D00073083169C000508F0
:101280001030F700F70B422900001C0883120D13E1
:1012900083169D018A11831282288A150C30E3007F
:1012A0008A11BF208A150430D300FA30E4008A1175
:1012B00026208A15D30B55290130CE070318CF0AF3
:1012C0000319D00A0319D10A8A11A8298A158A118B
:1012D000C22A8A157A08A5007908A4007808A30014
:1012E0007708A2008A11FF2A8A157A08A9007908CE
:1012F000A8007808A7007708A6008A117D2C8A1517
:10130000893084002508D6002408D5002308D4009D
:101310002208D3000230D7008A112E268A152030E9
:101320000C1E90299900893084002908D6002808CD
:10133000D5002708D4002608D3000230D7008A1130
:101340002E268A1520300C1EA3299900893084008E
:101350004D08D6004C08D5004B08D4004A08D300ED
:101360000230D7008A112E268A1520300C1EB6298D
:101370009900893084002D08D6002C08D5002B0850
:10138000D4002A08D3000230D7008A112E268A15ED
:1013900020300C1EC9299900103084002108D40087
:1013A0002008D3008A11FC2E8A150A300C1ED6297B
:1013B0009900D30153088A110C208A15D30AF7002B
:1013C000E3008A11BF208A1506305302031DDA2973
:1013D000893084002508D9002408D8002308D700C4
:1013E0002208D6000230DA0000200830D400540869
:1013F0008A110C208A15D40AF700E3008A11BF2055
:101400008A150D305402031DF729893084002908FC
:10141000D9002808D8002708D7002608D6000230AF
:10142000DA0000200F30D50055088A110C208A15EB
:10143000D50AF700E3008A11BF208A151330550240
:10144000031D142A893084004D08D9004C08D800A7
:101450004B08D7004A08D6000230DA0000203230AC
:0C146000E4008A1126208A15532963003D
:02400E007A3FF7
:00000001FF
;PIC16F877A
